{
  "contractName": "SimpleDAO",
  "abi": [
    {
      "inputs": [],
      "stateMutability": "nonpayable",
      "type": "constructor"
    },
    {
      "anonymous": false,
      "inputs": [
        {
          "indexed": false,
          "internalType": "uint256",
          "name": "id",
          "type": "uint256"
        },
        {
          "indexed": false,
          "internalType": "string",
          "name": "description",
          "type": "string"
        },
        {
          "indexed": false,
          "internalType": "address",
          "name": "proposer",
          "type": "address"
        }
      ],
      "name": "ProposalCreated",
      "type": "event"
    },
    {
      "anonymous": false,
      "inputs": [
        {
          "indexed": false,
          "internalType": "uint256",
          "name": "id",
          "type": "uint256"
        },
        {
          "indexed": false,
          "internalType": "bool",
          "name": "support",
          "type": "bool"
        },
        {
          "indexed": false,
          "internalType": "address",
          "name": "voter",
          "type": "address"
        }
      ],
      "name": "Voted",
      "type": "event"
    },
    {
      "inputs": [],
      "name": "nextProposalId",
      "outputs": [
        {
          "internalType": "uint256",
          "name": "",
          "type": "uint256"
        }
      ],
      "stateMutability": "view",
      "type": "function",
      "constant": true
    },
    {
      "inputs": [],
      "name": "owner",
      "outputs": [
        {
          "internalType": "address",
          "name": "",
          "type": "address"
        }
      ],
      "stateMutability": "view",
      "type": "function",
      "constant": true
    },
    {
      "inputs": [
        {
          "internalType": "uint256",
          "name": "",
          "type": "uint256"
        }
      ],
      "name": "proposals",
      "outputs": [
        {
          "internalType": "uint256",
          "name": "id",
          "type": "uint256"
        },
        {
          "internalType": "string",
          "name": "description",
          "type": "string"
        },
        {
          "internalType": "uint256",
          "name": "forVotes",
          "type": "uint256"
        },
        {
          "internalType": "uint256",
          "name": "againstVotes",
          "type": "uint256"
        },
        {
          "internalType": "bool",
          "name": "active",
          "type": "bool"
        },
        {
          "internalType": "address",
          "name": "proposer",
          "type": "address"
        }
      ],
      "stateMutability": "view",
      "type": "function",
      "constant": true
    },
    {
      "inputs": [
        {
          "internalType": "address",
          "name": "",
          "type": "address"
        },
        {
          "internalType": "uint256",
          "name": "",
          "type": "uint256"
        }
      ],
      "name": "votes",
      "outputs": [
        {
          "internalType": "bool",
          "name": "",
          "type": "bool"
        }
      ],
      "stateMutability": "view",
      "type": "function",
      "constant": true
    },
    {
      "inputs": [
        {
          "internalType": "string",
          "name": "description",
          "type": "string"
        }
      ],
      "name": "createProposal",
      "outputs": [],
      "stateMutability": "nonpayable",
      "type": "function"
    },
    {
      "inputs": [
        {
          "internalType": "uint256",
          "name": "proposalId",
          "type": "uint256"
        },
        {
          "internalType": "bool",
          "name": "support",
          "type": "bool"
        }
      ],
      "name": "vote",
      "outputs": [],
      "stateMutability": "nonpayable",
      "type": "function"
    },
    {
      "inputs": [
        {
          "internalType": "uint256",
          "name": "proposalId",
          "type": "uint256"
        }
      ],
      "name": "getProposal",
      "outputs": [
        {
          "internalType": "string",
          "name": "description",
          "type": "string"
        },
        {
          "internalType": "uint256",
          "name": "forVotes",
          "type": "uint256"
        },
        {
          "internalType": "uint256",
          "name": "againstVotes",
          "type": "uint256"
        },
        {
          "internalType": "bool",
          "name": "active",
          "type": "bool"
        },
        {
          "internalType": "address",
          "name": "proposer",
          "type": "address"
        }
      ],
      "stateMutability": "view",
      "type": "function",
      "constant": true
    },
    {
      "inputs": [
        {
          "internalType": "uint256",
          "name": "proposalId",
          "type": "uint256"
        }
      ],
      "name": "closeProposal",
      "outputs": [],
      "stateMutability": "nonpayable",
      "type": "function"
    }
  ],
  "bytecode": "0x608060405234801561001057600080fd5b50336000806101000a81548173ffffffffffffffffffffffffffffffffffffffff021916908373ffffffffffffffffffffffffffffffffffffffff160217905550600180819055506113d4806100676000396000f3fe608060405234801561001057600080fd5b50600436106100885760003560e01c80638da5cb5b1161005b5780638da5cb5b146101185780639f2524ee14610136578063c7f758a814610166578063c9d27afe1461019a57610088565b8063013cf08b1461008d5780630386a016146100c25780632ab09d14146100de57806349c2a1a6146100fc575b600080fd5b6100a760048036038101906100a291906109a6565b6101b6565b6040516100b996959493929190610ace565b60405180910390f35b6100dc60048036038101906100d791906109a6565b6102a7565b005b6100e66103c8565b6040516100f39190610b36565b60405180910390f35b61011660048036038101906101119190610bb6565b6103ce565b005b61012061056a565b60405161012d9190610c03565b60405180910390f35b610150600480360381019061014b9190610c4a565b61058e565b60405161015d9190610c8a565b60405180910390f35b610180600480360381019061017b91906109a6565b6105bd565b604051610191959493929190610ca5565b60405180910390f35b6101b460048036038101906101af9190610d2b565b61071c565b005b60026020528060005260406000206000915090508060000154908060010180546101df90610d9a565b80601f016020809104026020016040519081016040528092919081815260200182805461020b90610d9a565b80156102585780601f1061022d57610100808354040283529160200191610258565b820191906000526020600020905b81548152906001019060200180831161023b57829003601f168201915b5050505050908060020154908060030154908060040160009054906101000a900460ff16908060040160019054906101000a900473ffffffffffffffffffffffffffffffffffffffff16905086565b806000600260008381526020019081526020016000206000015403610301576040517f08c379a00000000000000000000000000000000000000000000000000000000081526004016102f890610e17565b60405180910390fd5b60008054906101000a900473ffffffffffffffffffffffffffffffffffffffff1673ffffffffffffffffffffffffffffffffffffffff163373ffffffffffffffffffffffffffffffffffffffff161461038f576040517f08c379a000000000000000000000000000000000000000000000000000000000815260040161038690610ea9565b60405180910390fd5b600060026000848152602001908152602001600020905060008160040160006101000a81548160ff021916908315150217905550505050565b60015481565b6040518060c00160405280600154815260200183838080601f016020809104026020016040519081016040528093929190818152602001838380828437600081840152601f19601f82011690508083019250505050505050815260200160008152602001600081526020016001151581526020013373ffffffffffffffffffffffffffffffffffffffff1681525060026000600154815260200190815260200160002060008201518160000155602082015181600101908161049091906110a4565b50604082015181600201556060820151816003015560808201518160040160006101000a81548160ff02191690831515021790555060a08201518160040160016101000a81548173ffffffffffffffffffffffffffffffffffffffff021916908373ffffffffffffffffffffffffffffffffffffffff1602179055509050507fc8c078bfee58e5822588f08b4509ed1eb5058e03f666cca84dd2d44bf5c288a860015483833360405161054694939291906111b2565b60405180910390a16001600081548092919061056190611221565b91905055505050565b60008054906101000a900473ffffffffffffffffffffffffffffffffffffffff1681565b60036020528160005260406000206020528060005260406000206000915091509054906101000a900460ff1681565b606060008060008085600060026000838152602001908152602001600020600001540361061f576040517f08c379a000000000000000000000000000000000000000000000000000000000815260040161061690610e17565b60405180910390fd5b600060026000898152602001908152602001600020905080600101816002015482600301548360040160009054906101000a900460ff168460040160019054906101000a900473ffffffffffffffffffffffffffffffffffffffff1684805461068790610d9a565b80601f01602080910402602001604051908101604052809291908181526020018280546106b390610d9a565b80156107005780601f106106d557610100808354040283529160200191610700565b820191906000526020600020905b8154815290600101906020018083116106e357829003601f168201915b5050505050945096509650965096509650505091939590929450565b816000600260008381526020019081526020016000206000015403610776576040517f08c379a000000000000000000000000000000000000000000000000000000000815260040161076d90610e17565b60405180910390fd5b60006002600085815260200190815260200160002090508060040160009054906101000a900460ff166107de576040517f08c379a00000000000000000000000000000000000000000000000000000000081526004016107d5906112b5565b60405180910390fd5b600360003373ffffffffffffffffffffffffffffffffffffffff1673ffffffffffffffffffffffffffffffffffffffff168152602001908152602001600020600085815260200190815260200160002060009054906101000a900460ff161561087c576040517f08c379a000000000000000000000000000000000000000000000000000000000815260040161087390611347565b60405180910390fd5b82156108a15780600201600081548092919061089790611221565b91905055506108bc565b8060030160008154809291906108b690611221565b91905055505b6001600360003373ffffffffffffffffffffffffffffffffffffffff1673ffffffffffffffffffffffffffffffffffffffff168152602001908152602001600020600086815260200190815260200160002060006101000a81548160ff0219169083151502179055507f86abfce99b7dd908bec0169288797f85049ec73cbe046ed9de818fab3a497ae084843360405161095893929190611367565b60405180910390a150505050565b600080fd5b600080fd5b6000819050919050565b61098381610970565b811461098e57600080fd5b50565b6000813590506109a08161097a565b92915050565b6000602082840312156109bc576109bb610966565b5b60006109ca84828501610991565b91505092915050565b6109dc81610970565b82525050565b600081519050919050565b600082825260208201905092915050565b60005b83811015610a1c578082015181840152602081019050610a01565b60008484015250505050565b6000601f19601f8301169050919050565b6000610a44826109e2565b610a4e81856109ed565b9350610a5e8185602086016109fe565b610a6781610a28565b840191505092915050565b60008115159050919050565b610a8781610a72565b82525050565b600073ffffffffffffffffffffffffffffffffffffffff82169050919050565b6000610ab882610a8d565b9050919050565b610ac881610aad565b82525050565b600060c082019050610ae360008301896109d3565b8181036020830152610af58188610a39565b9050610b0460408301876109d3565b610b1160608301866109d3565b610b1e6080830185610a7e565b610b2b60a0830184610abf565b979650505050505050565b6000602082019050610b4b60008301846109d3565b92915050565b600080fd5b600080fd5b600080fd5b60008083601f840112610b7657610b75610b51565b5b8235905067ffffffffffffffff811115610b9357610b92610b56565b5b602083019150836001820283011115610baf57610bae610b5b565b5b9250929050565b60008060208385031215610bcd57610bcc610966565b5b600083013567ffffffffffffffff811115610beb57610bea61096b565b5b610bf785828601610b60565b92509250509250929050565b6000602082019050610c186000830184610abf565b92915050565b610c2781610aad565b8114610c3257600080fd5b50565b600081359050610c4481610c1e565b92915050565b60008060408385031215610c6157610c60610966565b5b6000610c6f85828601610c35565b9250506020610c8085828601610991565b9150509250929050565b6000602082019050610c9f6000830184610a7e565b92915050565b600060a0820190508181036000830152610cbf8188610a39565b9050610cce60208301876109d3565b610cdb60408301866109d3565b610ce86060830185610a7e565b610cf56080830184610abf565b9695505050505050565b610d0881610a72565b8114610d1357600080fd5b50565b600081359050610d2581610cff565b92915050565b60008060408385031215610d4257610d41610966565b5b6000610d5085828601610991565b9250506020610d6185828601610d16565b9150509250929050565b7f4e487b7100000000000000000000000000000000000000000000000000000000600052602260045260246000fd5b60006002820490506001821680610db257607f821691505b602082108103610dc557610dc4610d6b565b5b50919050565b7f50726f706f73616c20646f6573206e6f74206578697374000000000000000000600082015250565b6000610e016017836109ed565b9150610e0c82610dcb565b602082019050919050565b60006020820190508181036000830152610e3081610df4565b9050919050565b7f4f6e6c7920746865206f776e65722063616e20636c6f73652070726f706f736160008201527f6c73000000000000000000000000000000000000000000000000000000000000602082015250565b6000610e936022836109ed565b9150610e9e82610e37565b604082019050919050565b60006020820190508181036000830152610ec281610e86565b9050919050565b7f4e487b7100000000000000000000000000000000000000000000000000000000600052604160045260246000fd5b60008190508160005260206000209050919050565b60006020601f8301049050919050565b600082821b905092915050565b600060088302610f5a7fffffffffffffffffffffffffffffffffffffffffffffffffffffffffffffffff82610f1d565b610f648683610f1d565b95508019841693508086168417925050509392505050565b6000819050919050565b6000610fa1610f9c610f9784610970565b610f7c565b610970565b9050919050565b6000819050919050565b610fbb83610f86565b610fcf610fc782610fa8565b848454610f2a565b825550505050565b600090565b610fe4610fd7565b610fef818484610fb2565b505050565b5b8181101561101357611008600082610fdc565b600181019050610ff5565b5050565b601f8211156110585761102981610ef8565b61103284610f0d565b81016020851015611041578190505b61105561104d85610f0d565b830182610ff4565b50505b505050565b600082821c905092915050565b600061107b6000198460080261105d565b1980831691505092915050565b6000611094838361106a565b9150826002028217905092915050565b6110ad826109e2565b67ffffffffffffffff8111156110c6576110c5610ec9565b5b6110d08254610d9a565b6110db828285611017565b600060209050601f83116001811461110e57600084156110fc578287015190505b6111068582611088565b86555061116e565b601f19841661111c86610ef8565b60005b828110156111445784890151825560018201915060208501945060208101905061111f565b86831015611161578489015161115d601f89168261106a565b8355505b6001600288020188555050505b505050505050565b82818337600083830152505050565b600061119183856109ed565b935061119e838584611176565b6111a783610a28565b840190509392505050565b60006060820190506111c760008301876109d3565b81810360208301526111da818587611185565b90506111e96040830184610abf565b95945050505050565b7f4e487b7100000000000000000000000000000000000000000000000000000000600052601160045260246000fd5b600061122c82610970565b91507fffffffffffffffffffffffffffffffffffffffffffffffffffffffffffffffff820361125e5761125d6111f2565b5b600182019050919050565b7f50726f706f73616c206973206e6f206c6f6e6765722061637469766500000000600082015250565b600061129f601c836109ed565b91506112aa82611269565b602082019050919050565b600060208201905081810360008301526112ce81611292565b9050919050565b7f596f75206861766520616c726561647920766f746564206f6e2074686973207060008201527f726f706f73616c00000000000000000000000000000000000000000000000000602082015250565b60006113316027836109ed565b915061133c826112d5565b604082019050919050565b6000602082019050818103600083015261136081611324565b9050919050565b600060608201905061137c60008301866109d3565b6113896020830185610a7e565b6113966040830184610abf565b94935050505056fea264697066735822122070ed31e83387f4e50a89db5d3245f8c9f1fe51a12af0ab024c2cb0eef466d97164736f6c63430008150033",
  "immutableReferences": {},
  "source": "// SPDX-License-Identifier: MIT\r\npragma solidity ^0.8.0;\r\n\r\ncontract SimpleDAO {\r\n    // Define the structure of a Proposal\r\n    struct Proposal {\r\n        uint id;\r\n        string description;\r\n        uint forVotes;\r\n        uint againstVotes;\r\n        bool active;\r\n        address proposer;\r\n    }\r\n\r\n    // State variables\r\n    address public owner;\r\n    uint public nextProposalId;\r\n    mapping(uint => Proposal) public proposals;\r\n    mapping(address => mapping(uint => bool)) public votes; // track if an address has voted on a proposal\r\n\r\n    // Events\r\n    event ProposalCreated(uint id, string description, address proposer);\r\n    event Voted(uint id, bool support, address voter);\r\n\r\n    // Constructor\r\n    constructor() {\r\n        owner = msg.sender;\r\n        nextProposalId = 1;\r\n    }\r\n\r\n    // Modifier to check if a proposal exists\r\n    modifier validProposal(uint proposalId) {\r\n        require(proposals[proposalId].id != 0, \"Proposal does not exist\");\r\n        _;\r\n    }\r\n\r\n    // Function to create a proposal\r\n    function createProposal(string calldata description) external {\r\n        proposals[nextProposalId] = Proposal({\r\n            id: nextProposalId,\r\n            description: description,\r\n            forVotes: 0,\r\n            againstVotes: 0,\r\n            active: true,\r\n            proposer: msg.sender\r\n        });\r\n        \r\n        emit ProposalCreated(nextProposalId, description, msg.sender);\r\n        nextProposalId++;\r\n    }\r\n\r\n    // Function to vote on a proposal\r\n    function vote(uint proposalId, bool support) external validProposal(proposalId) {\r\n        Proposal storage proposal = proposals[proposalId];\r\n        require(proposal.active, \"Proposal is no longer active\");\r\n        require(!votes[msg.sender][proposalId], \"You have already voted on this proposal\");\r\n\r\n        if (support) {\r\n            proposal.forVotes++;\r\n        } else {\r\n            proposal.againstVotes++;\r\n        }\r\n\r\n        votes[msg.sender][proposalId] = true; // Mark that the voter has voted on this proposal\r\n        emit Voted(proposalId, support, msg.sender);\r\n    }\r\n\r\n    // Function to get proposal details\r\n    function getProposal(uint proposalId) external view validProposal(proposalId) returns (\r\n        string memory description,\r\n        uint forVotes,\r\n        uint againstVotes,\r\n        bool active,\r\n        address proposer\r\n    ) {\r\n        Proposal storage proposal = proposals[proposalId];\r\n        return (\r\n            proposal.description,\r\n            proposal.forVotes,\r\n            proposal.againstVotes,\r\n            proposal.active,\r\n            proposal.proposer\r\n        );\r\n    }\r\n\r\n    // Function to close a proposal (only owner)\r\n    function closeProposal(uint proposalId) external validProposal(proposalId) {\r\n        require(msg.sender == owner, \"Only the owner can close proposals\");\r\n        Proposal storage proposal = proposals[proposalId];\r\n        proposal.active = false;\r\n    }\r\n}\r\n",
  "sourcePath": "C:\\Users\\Sarthak\\Desktop\\Blockchain College\\Distrubuted Ledger\\DAO\\contracts\\SimpleDAO.sol",
  "compiler": {
    "name": "solc",
    "version": "0.8.21+commit.d9974bed.Emscripten.clang"
  },
  "schemaVersion": "3.4.16",
  "updatedAt": "2024-11-07T07:37:02.379Z",
  "networkType": "ethereum",
  "devdoc": {
    "kind": "dev",
    "methods": {},
    "version": 1
  },
  "userdoc": {
    "kind": "user",
    "methods": {},
    "version": 1
  }
}